{
  "address": "0xD23Dd0Ad671F30a0D41c0fa54712460f8484feA4",
  "abi": [
    {
      "inputs": [
        {
          "internalType": "address",
          "name": "priceFeedAddress",
          "type": "address"
        }
      ],
      "stateMutability": "nonpayable",
      "type": "constructor"
    },
    {
      "inputs": [],
      "name": "NotOwner",
      "type": "error"
    },
    {
      "stateMutability": "payable",
      "type": "fallback"
    },
    {
      "inputs": [],
      "name": "MINUSD",
      "outputs": [
        {
          "internalType": "uint256",
          "name": "",
          "type": "uint256"
        }
      ],
      "stateMutability": "view",
      "type": "function"
    },
    {
      "inputs": [
        {
          "internalType": "address",
          "name": "",
          "type": "address"
        }
      ],
      "name": "addrToAmtFund",
      "outputs": [
        {
          "internalType": "uint256",
          "name": "",
          "type": "uint256"
        }
      ],
      "stateMutability": "view",
      "type": "function"
    },
    {
      "inputs": [],
      "name": "fund",
      "outputs": [],
      "stateMutability": "payable",
      "type": "function"
    },
    {
      "inputs": [
        {
          "internalType": "uint256",
          "name": "",
          "type": "uint256"
        }
      ],
      "name": "funders",
      "outputs": [
        {
          "internalType": "address",
          "name": "",
          "type": "address"
        }
      ],
      "stateMutability": "view",
      "type": "function"
    },
    {
      "inputs": [],
      "name": "i_owner",
      "outputs": [
        {
          "internalType": "address",
          "name": "",
          "type": "address"
        }
      ],
      "stateMutability": "view",
      "type": "function"
    },
    {
      "inputs": [],
      "name": "priceFeed",
      "outputs": [
        {
          "internalType": "contract AggregatorV3Interface",
          "name": "",
          "type": "address"
        }
      ],
      "stateMutability": "view",
      "type": "function"
    },
    {
      "inputs": [],
      "name": "valInUSD",
      "outputs": [
        {
          "internalType": "uint256",
          "name": "",
          "type": "uint256"
        }
      ],
      "stateMutability": "view",
      "type": "function"
    },
    {
      "inputs": [],
      "name": "withdraw",
      "outputs": [],
      "stateMutability": "nonpayable",
      "type": "function"
    },
    {
      "stateMutability": "payable",
      "type": "receive"
    }
  ],
  "transactionHash": "0x0e8c4dd7946879bac49fcfa3adda8a3f60582ae2f88efa898fc7a4b94c648117",
  "args": [
    "0x8A753747A1Fa494EC906cE90E9f37563A8AF630e"
  ],
  "numDeployments": 1,
  "solcInputHash": "56d7f4f36433bcbd548abc95eadd602f",
  "bytecode": "0x60a06040523480156200001157600080fd5b506040516200118438038062001184833981810160405281019062000037919062000120565b3373ffffffffffffffffffffffffffffffffffffffff1660808173ffffffffffffffffffffffffffffffffffffffff1660601b8152505080600360006101000a81548173ffffffffffffffffffffffffffffffffffffffff021916908373ffffffffffffffffffffffffffffffffffffffff1602179055505062000152565b600080fd5b600073ffffffffffffffffffffffffffffffffffffffff82169050919050565b6000620000e882620000bb565b9050919050565b620000fa81620000db565b81146200010657600080fd5b50565b6000815190506200011a81620000ef565b92915050565b600060208284031215620001395762000138620000b6565b5b6000620001498482850162000109565b91505092915050565b60805160601c6110056200017f6000396000818161030a0152818161039801526106eb01526110056000f3fe60806040526004361061007f5760003560e01c80639f6b1f8b1161004e5780639f6b1f8b14610142578063b60d42881461016d578063dba6335f14610177578063dc0d3dff146101a25761008e565b80633ccfd60b146100985780634415d9d1146100af5780634dc93616146100ec578063741bef1a146101175761008e565b3661008e5761008c6101df565b005b6100966101df565b005b3480156100a457600080fd5b506100ad610308565b005b3480156100bb57600080fd5b506100d660048036038101906100d19190610927565b610698565b6040516100e3919061096d565b60405180910390f35b3480156100f857600080fd5b506101016106b0565b60405161010e919061096d565b60405180910390f35b34801561012357600080fd5b5061012c6106bd565b60405161013991906109e7565b60405180910390f35b34801561014e57600080fd5b506101576106e3565b604051610164919061096d565b60405180910390f35b6101756101df565b005b34801561018357600080fd5b5061018c6106e9565b6040516101999190610a11565b60405180910390f35b3480156101ae57600080fd5b506101c960048036038101906101c49190610a58565b61070d565b6040516101d69190610a11565b60405180910390f35b6802b5e3af16b188000061021e600360009054906101000a900473ffffffffffffffffffffffffffffffffffffffff163461074c90919063ffffffff16565b101561025f576040517f08c379a000000000000000000000000000000000000000000000000000000000815260040161025690610ae2565b60405180910390fd5b6001339080600181540180825580915050600190039060005260206000200160009091909190916101000a81548173ffffffffffffffffffffffffffffffffffffffff021916908373ffffffffffffffffffffffffffffffffffffffff16021790555034600260003373ffffffffffffffffffffffffffffffffffffffff1673ffffffffffffffffffffffffffffffffffffffff16815260200190815260200160002081905550565b7f000000000000000000000000000000000000000000000000000000000000000073ffffffffffffffffffffffffffffffffffffffff163373ffffffffffffffffffffffffffffffffffffffff1614610396576040517f08c379a000000000000000000000000000000000000000000000000000000000815260040161038d90610b4e565b60405180910390fd5b7f000000000000000000000000000000000000000000000000000000000000000073ffffffffffffffffffffffffffffffffffffffff163373ffffffffffffffffffffffffffffffffffffffff161461041b576040517f30cd747100000000000000000000000000000000000000000000000000000000815260040160405180910390fd5b60005b6001805490508110156104c75760006001828154811061044157610440610b6e565b5b9060005260206000200160009054906101000a900473ffffffffffffffffffffffffffffffffffffffff1690506000600260008373ffffffffffffffffffffffffffffffffffffffff1673ffffffffffffffffffffffffffffffffffffffff168152602001908152602001600020819055505080806104bf90610bcc565b91505061041e565b50600067ffffffffffffffff8111156104e3576104e2610c15565b5b6040519080825280602002602001820160405280156105115781602001602082028036833780820191505090505b506001908051906020019061052792919061081d565b503373ffffffffffffffffffffffffffffffffffffffff166108fc479081150290604051600060405180830381858888f1935050505015801561056e573d6000803e3d6000fd5b5060003373ffffffffffffffffffffffffffffffffffffffff166108fc479081150290604051600060405180830381858888f193505050509050806105e8576040517f08c379a00000000000000000000000000000000000000000000000000000000081526004016105df90610c90565b60405180910390fd5b60003373ffffffffffffffffffffffffffffffffffffffff164760405161060e90610ce1565b60006040518083038185875af1925050503d806000811461064b576040519150601f19603f3d011682016040523d82523d6000602084013e610650565b606091505b5050905080610694576040517f08c379a000000000000000000000000000000000000000000000000000000000815260040161068b90610c90565b60405180910390fd5b5050565b60026020528060005260406000206000915090505481565b6802b5e3af16b188000081565b600360009054906101000a900473ffffffffffffffffffffffffffffffffffffffff1681565b60005481565b7f000000000000000000000000000000000000000000000000000000000000000081565b6001818154811061071d57600080fd5b906000526020600020016000915054906101000a900473ffffffffffffffffffffffffffffffffffffffff1681565b6000670de0b6b3a76400006107608361077d565b8461076b9190610cf6565b6107759190610d7f565b905092915050565b6000808273ffffffffffffffffffffffffffffffffffffffff1663feaf968c6040518163ffffffff1660e01b815260040160a06040518083038186803b1580156107c657600080fd5b505afa1580156107da573d6000803e3d6000fd5b505050506040513d601f19601f820116820180604052508101906107fe9190610e3d565b5050509150506402540be400816108159190610eb8565b915050919050565b828054828255906000526020600020908101928215610896579160200282015b828111156108955782518260006101000a81548173ffffffffffffffffffffffffffffffffffffffff021916908373ffffffffffffffffffffffffffffffffffffffff1602179055509160200191906001019061083d565b5b5090506108a391906108a7565b5090565b5b808211156108c05760008160009055506001016108a8565b5090565b600080fd5b600073ffffffffffffffffffffffffffffffffffffffff82169050919050565b60006108f4826108c9565b9050919050565b610904816108e9565b811461090f57600080fd5b50565b600081359050610921816108fb565b92915050565b60006020828403121561093d5761093c6108c4565b5b600061094b84828501610912565b91505092915050565b6000819050919050565b61096781610954565b82525050565b6000602082019050610982600083018461095e565b92915050565b6000819050919050565b60006109ad6109a86109a3846108c9565b610988565b6108c9565b9050919050565b60006109bf82610992565b9050919050565b60006109d1826109b4565b9050919050565b6109e1816109c6565b82525050565b60006020820190506109fc60008301846109d8565b92915050565b610a0b816108e9565b82525050565b6000602082019050610a266000830184610a02565b92915050565b610a3581610954565b8114610a4057600080fd5b50565b600081359050610a5281610a2c565b92915050565b600060208284031215610a6e57610a6d6108c4565b5b6000610a7c84828501610a43565b91505092915050565b600082825260208201905092915050565b7f4469646e27742073656e6420656e6f7567682100000000000000000000000000600082015250565b6000610acc601383610a85565b9150610ad782610a96565b602082019050919050565b60006020820190508181036000830152610afb81610abf565b9050919050565b7f596f7572206e6f74206f776e6572000000000000000000000000000000000000600082015250565b6000610b38600e83610a85565b9150610b4382610b02565b602082019050919050565b60006020820190508181036000830152610b6781610b2b565b9050919050565b7f4e487b7100000000000000000000000000000000000000000000000000000000600052603260045260246000fd5b7f4e487b7100000000000000000000000000000000000000000000000000000000600052601160045260246000fd5b6000610bd782610954565b91507fffffffffffffffffffffffffffffffffffffffffffffffffffffffffffffffff821415610c0a57610c09610b9d565b5b600182019050919050565b7f4e487b7100000000000000000000000000000000000000000000000000000000600052604160045260246000fd5b7f4661696c21000000000000000000000000000000000000000000000000000000600082015250565b6000610c7a600583610a85565b9150610c8582610c44565b602082019050919050565b60006020820190508181036000830152610ca981610c6d565b9050919050565b600081905092915050565b50565b6000610ccb600083610cb0565b9150610cd682610cbb565b600082019050919050565b6000610cec82610cbe565b9150819050919050565b6000610d0182610954565b9150610d0c83610954565b9250817fffffffffffffffffffffffffffffffffffffffffffffffffffffffffffffffff0483118215151615610d4557610d44610b9d565b5b828202905092915050565b7f4e487b7100000000000000000000000000000000000000000000000000000000600052601260045260246000fd5b6000610d8a82610954565b9150610d9583610954565b925082610da557610da4610d50565b5b828204905092915050565b600069ffffffffffffffffffff82169050919050565b610dcf81610db0565b8114610dda57600080fd5b50565b600081519050610dec81610dc6565b92915050565b6000819050919050565b610e0581610df2565b8114610e1057600080fd5b50565b600081519050610e2281610dfc565b92915050565b600081519050610e3781610a2c565b92915050565b600080600080600060a08688031215610e5957610e586108c4565b5b6000610e6788828901610ddd565b9550506020610e7888828901610e13565b9450506040610e8988828901610e28565b9350506060610e9a88828901610e28565b9250506080610eab88828901610ddd565b9150509295509295909350565b6000610ec382610df2565b9150610ece83610df2565b9250827f7fffffffffffffffffffffffffffffffffffffffffffffffffffffffffffffff0482116000841360008413161615610f0d57610f0c610b9d565b5b817f80000000000000000000000000000000000000000000000000000000000000000583126000841260008413161615610f4a57610f49610b9d565b5b827f80000000000000000000000000000000000000000000000000000000000000000582126000841360008412161615610f8757610f86610b9d565b5b827f7fffffffffffffffffffffffffffffffffffffffffffffffffffffffffffffff0582126000841260008412161615610fc457610fc3610b9d565b5b82820290509291505056fea264697066735822122060a56a0637b1e33d55e194e82aa1bb3e9817914f7da196b14871f94299a72ea264736f6c63430008080033",
  "devdoc": {
    "kind": "dev",
    "methods": {},
    "version": 1
  },
  "userdoc": {
    "kind": "user",
    "methods": {},
    "version": 1
  },
  "storageLayout": {
    "storage": [
      {
        "astId": 61,
        "contract": "contracts/FundMe.sol:FundMe",
        "label": "valInUSD",
        "offset": 0,
        "slot": "0",
        "type": "t_uint256"
      },
      {
        "astId": 66,
        "contract": "contracts/FundMe.sol:FundMe",
        "label": "funders",
        "offset": 0,
        "slot": "1",
        "type": "t_array(t_address)dyn_storage"
      },
      {
        "astId": 70,
        "contract": "contracts/FundMe.sol:FundMe",
        "label": "addrToAmtFund",
        "offset": 0,
        "slot": "2",
        "type": "t_mapping(t_address,t_uint256)"
      },
      {
        "astId": 73,
        "contract": "contracts/FundMe.sol:FundMe",
        "label": "priceFeed",
        "offset": 0,
        "slot": "3",
        "type": "t_contract(AggregatorV3Interface)45"
      }
    ],
    "types": {
      "t_address": {
        "encoding": "inplace",
        "label": "address",
        "numberOfBytes": "20"
      },
      "t_array(t_address)dyn_storage": {
        "base": "t_address",
        "encoding": "dynamic_array",
        "label": "address[]",
        "numberOfBytes": "32"
      },
      "t_contract(AggregatorV3Interface)45": {
        "encoding": "inplace",
        "label": "contract AggregatorV3Interface",
        "numberOfBytes": "20"
      },
      "t_mapping(t_address,t_uint256)": {
        "encoding": "mapping",
        "key": "t_address",
        "label": "mapping(address => uint256)",
        "numberOfBytes": "32",
        "value": "t_uint256"
      },
      "t_uint256": {
        "encoding": "inplace",
        "label": "uint256",
        "numberOfBytes": "32"
      }
    }
  }
}